{
  "contractName": "LandTitle",
  "abi": [
    {
      "anonymous": false,
      "inputs": [
        {
          "indexed": true,
          "internalType": "uint256",
          "name": "_id",
          "type": "uint256"
        },
        {
          "indexed": true,
          "internalType": "address",
          "name": "_landOwner",
          "type": "address"
        },
        {
          "indexed": false,
          "internalType": "string",
          "name": "_ownerName",
          "type": "string"
        },
        {
          "indexed": false,
          "internalType": "string",
          "name": "_city",
          "type": "string"
        }
      ],
      "name": "registerLandEvent",
      "type": "event"
    },
    {
      "constant": true,
      "inputs": [
        {
          "internalType": "uint256",
          "name": "",
          "type": "uint256"
        }
      ],
      "name": "landList",
      "outputs": [
        {
          "internalType": "uint256",
          "name": "id",
          "type": "uint256"
        },
        {
          "internalType": "address",
          "name": "owner",
          "type": "address"
        },
        {
          "internalType": "string",
          "name": "name",
          "type": "string"
        },
        {
          "internalType": "string",
          "name": "city",
          "type": "string"
        },
        {
          "internalType": "string",
          "name": "rights",
          "type": "string"
        },
        {
          "internalType": "string",
          "name": "restrictions",
          "type": "string"
        },
        {
          "internalType": "string",
          "name": "responsibilities",
          "type": "string"
        }
      ],
      "payable": false,
      "stateMutability": "view",
      "type": "function"
    },
    {
      "constant": false,
      "inputs": [
        {
          "internalType": "string",
          "name": "_name",
          "type": "string"
        },
        {
          "internalType": "string",
          "name": "_city",
          "type": "string"
        },
        {
          "internalType": "string",
          "name": "_rights",
          "type": "string"
        },
        {
          "internalType": "string",
          "name": "_restrictions",
          "type": "string"
        },
        {
          "internalType": "string",
          "name": "_responsibilities",
          "type": "string"
        }
      ],
      "name": "registerLand",
      "outputs": [],
      "payable": false,
      "stateMutability": "nonpayable",
      "type": "function"
    },
    {
      "constant": true,
      "inputs": [],
      "name": "getNumberOfLandRegistered",
      "outputs": [
        {
          "internalType": "uint256",
          "name": "",
          "type": "uint256"
        }
      ],
      "payable": false,
      "stateMutability": "view",
      "type": "function"
    },
    {
      "constant": true,
      "inputs": [],
      "name": "getRegisteredLandList",
      "outputs": [
        {
          "internalType": "uint256[]",
          "name": "",
          "type": "uint256[]"
        }
      ],
      "payable": false,
      "stateMutability": "view",
      "type": "function"
    }
  ],
  "bytecode": "0x608060405234801561001057600080fd5b50610e12806100206000396000f3fe608060405234801561001057600080fd5b506004361061004c5760003560e01c806323c68980146100515780639b17533c14610368578063d1ad6234146103c7578063d5e42151146103e5575b600080fd5b610366600480360360a081101561006757600080fd5b810190808035906020019064010000000081111561008457600080fd5b82018360208201111561009657600080fd5b803590602001918460018302840111640100000000831117156100b857600080fd5b91908080601f016020809104026020016040519081016040528093929190818152602001838380828437600081840152601f19601f8201169050808301925050505050505091929192908035906020019064010000000081111561011b57600080fd5b82018360208201111561012d57600080fd5b8035906020019184600183028401116401000000008311171561014f57600080fd5b91908080601f016020809104026020016040519081016040528093929190818152602001838380828437600081840152601f19601f820116905080830192505050505050509192919290803590602001906401000000008111156101b257600080fd5b8201836020820111156101c457600080fd5b803590602001918460018302840111640100000000831117156101e657600080fd5b91908080601f016020809104026020016040519081016040528093929190818152602001838380828437600081840152601f19601f8201169050808301925050505050505091929192908035906020019064010000000081111561024957600080fd5b82018360208201111561025b57600080fd5b8035906020019184600183028401116401000000008311171561027d57600080fd5b91908080601f016020809104026020016040519081016040528093929190818152602001838380828437600081840152601f19601f820116905080830192505050505050509192919290803590602001906401000000008111156102e057600080fd5b8201836020820111156102f257600080fd5b8035906020019184600183028401116401000000008311171561031457600080fd5b91908080601f016020809104026020016040519081016040528093929190818152602001838380828437600081840152601f19601f820116905080830192505050505050509192919290505050610676565b005b6103706108f6565b6040518080602001828103825283818151815260200191508051906020019060200280838360005b838110156103b3578082015181840152602081019050610398565b505050509050019250505060405180910390f35b6103cf6109d4565b6040518082815260200191505060405180910390f35b610411600480360360208110156103fb57600080fd5b81019080803590602001909291905050506109de565b604051808881526020018773ffffffffffffffffffffffffffffffffffffffff1673ffffffffffffffffffffffffffffffffffffffff168152602001806020018060200180602001806020018060200186810386528b818151815260200191508051906020019080838360005b8381101561049957808201518184015260208101905061047e565b50505050905090810190601f1680156104c65780820380516001836020036101000a031916815260200191505b5086810385528a818151815260200191508051906020019080838360005b838110156104ff5780820151818401526020810190506104e4565b50505050905090810190601f16801561052c5780820380516001836020036101000a031916815260200191505b50868103845289818151815260200191508051906020019080838360005b8381101561056557808201518184015260208101905061054a565b50505050905090810190601f1680156105925780820380516001836020036101000a031916815260200191505b50868103835288818151815260200191508051906020019080838360005b838110156105cb5780820151818401526020810190506105b0565b50505050905090810190601f1680156105f85780820380516001836020036101000a031916815260200191505b50868103825287818151815260200191508051906020019080838360005b83811015610631578082015181840152602081019050610616565b50505050905090810190601f16801561065e5780820380516001836020036101000a031916815260200191505b509c5050505050505050505050505060405180910390f35b6040518060e0016040528060015481526020013373ffffffffffffffffffffffffffffffffffffffff1681526020018681526020018581526020018481526020018381526020018281525060008060015481526020019081526020016000206000820151816000015560208201518160010160006101000a81548173ffffffffffffffffffffffffffffffffffffffff021916908373ffffffffffffffffffffffffffffffffffffffff1602179055506040820151816002019080519060200190610742929190610d38565b50606082015181600301908051906020019061075f929190610d38565b50608082015181600401908051906020019061077c929190610d38565b5060a0820151816005019080519060200190610799929190610d38565b5060c08201518160060190805190602001906107b6929190610d38565b509050506001600081548092919060010191905055503373ffffffffffffffffffffffffffffffffffffffff166001547f4844e4151be144cd1ee02f8e35b3655dd5d231c23b6c20875446a882fe5a8b4a8787604051808060200180602001838103835285818151815260200191508051906020019080838360005b8381101561084d578082015181840152602081019050610832565b50505050905090810190601f16801561087a5780820380516001836020036101000a031916815260200191505b50838103825284818151815260200191508051906020019080838360005b838110156108b3578082015181840152602081019050610898565b50505050905090810190601f1680156108e05780820380516001836020036101000a031916815260200191505b5094505050505060405180910390a35050505050565b606060006001541161090757600080fd5b6000600154141561094a5760006040519080825280602002602001820160405280156109425781602001602082028038833980820191505090505b5090506109d1565b606060015460405190808252806020026020018201604052801561097d5781602001602082028038833980820191505090505b50905060008090505b6001548110156109cb57600080828152602001908152602001600020600001548282815181106109b257fe5b6020026020010181815250508080600101915050610986565b50809150505b90565b6000600154905090565b60006020528060005260406000206000915090508060000154908060010160009054906101000a900473ffffffffffffffffffffffffffffffffffffffff1690806002018054600181600116156101000203166002900480601f016020809104026020016040519081016040528092919081815260200182805460018160011615610100020316600290048015610ab65780601f10610a8b57610100808354040283529160200191610ab6565b820191906000526020600020905b815481529060010190602001808311610a9957829003601f168201915b505050505090806003018054600181600116156101000203166002900480601f016020809104026020016040519081016040528092919081815260200182805460018160011615610100020316600290048015610b545780601f10610b2957610100808354040283529160200191610b54565b820191906000526020600020905b815481529060010190602001808311610b3757829003601f168201915b505050505090806004018054600181600116156101000203166002900480601f016020809104026020016040519081016040528092919081815260200182805460018160011615610100020316600290048015610bf25780601f10610bc757610100808354040283529160200191610bf2565b820191906000526020600020905b815481529060010190602001808311610bd557829003601f168201915b505050505090806005018054600181600116156101000203166002900480601f016020809104026020016040519081016040528092919081815260200182805460018160011615610100020316600290048015610c905780601f10610c6557610100808354040283529160200191610c90565b820191906000526020600020905b815481529060010190602001808311610c7357829003601f168201915b505050505090806006018054600181600116156101000203166002900480601f016020809104026020016040519081016040528092919081815260200182805460018160011615610100020316600290048015610d2e5780601f10610d0357610100808354040283529160200191610d2e565b820191906000526020600020905b815481529060010190602001808311610d1157829003601f168201915b5050505050905087565b828054600181600116156101000203166002900490600052602060002090601f016020900481019282601f10610d7957805160ff1916838001178555610da7565b82800160010185558215610da7579182015b82811115610da6578251825591602001919060010190610d8b565b5b509050610db49190610db8565b5090565b610dda91905b80821115610dd6576000816000905550600101610dbe565b5090565b9056fea265627a7a72315820eb81c0d4f02f71338f20c37bddca11ba3fbf222fd2eabbd121c529f8bf79620264736f6c63430005100032",
  "source": "// SPDX-License-Identifier: MIT\r\npragma solidity >=0.4.21 <0.7.0;\r\n\r\n\r\ncontract LandTitle {\r\n\r\n    // Custom Types\r\n    struct Land {\r\n      uint id;\r\n      address owner;\r\n      string name;\r\n      string city;\r\n      string rights;\r\n      string restrictions;\r\n      string responsibilities;\r\n    }\r\n\r\n    // State variables\r\n    mapping(uint => Land) public landList;\r\n    uint landListCounter;\r\n\r\n    // Events\r\n    event registerLandEvent (\r\n      uint indexed _id,\r\n      address indexed _landOwner,\r\n      string _ownerName,\r\n      string _city\r\n    );\r\n\r\n    // register land\r\n    function registerLand(string memory _name, string memory _city, string memory _rights, string memory _restrictions, string memory _responsibilities) public {\r\n\r\n        // store the Land title\r\n        landList[landListCounter] = Land(landListCounter, msg.sender, _name, _city, _rights, _restrictions, _responsibilities);\r\n        landListCounter++;\r\n\r\n        // trigger the event\r\n        emit registerLandEvent( landListCounter, msg.sender, _name, _city);\r\n    }\r\n\r\n    //fetch the number of Land registered in the contract\r\n    function getNumberOfLandRegistered() public view returns (uint) {\r\n      return landListCounter;\r\n    }\r\n\r\n    // fetch and returns all land IDs getNumberOfLandRegistered\r\n    function getRegisteredLandList() public view returns ( uint[] memory  ) {\r\n      // we check whether there is at least one registered Land\r\n      require(landListCounter > 0);\r\n\r\n      if (landListCounter == 0) {\r\n        return new uint[](0);\r\n      }\r\n\r\n      //prepare output arrays\r\n      uint[] memory registeredLandList = new uint[] (landListCounter);\r\n      for (uint i = 0; i < landListCounter; i++) {\r\n        registeredLandList[i] = landList[i].id;\r\n      }\r\n\r\n      return (registeredLandList);\r\n    }\r\n}",
  "sourcePath": "C:/Users/vip/Documents/blockchain_final_project/contracts/LandTitle.sol",
  "compiler": {
    "name": "solc",
    "version": "0.5.16+commit.9c3226ce.Emscripten.clang"
  },
  "schemaVersion": "3.2.3",
  "updatedAt": "2020-08-24T16:01:02.657Z",
  "networkType": "ethereum",
  "devdoc": {
    "methods": {}
  },
  "userdoc": {
    "methods": {}
  }
}